:020000040000FA
:10000000E0220020150200001D0200001F02000077
:100010002102000023020000250200000000000071
:1000200000000000000000000000000027020000A7
:1000300029020000000000002B0200002D02000039
:10004000810200002F020000110600002F020000B4
:100050002F0200002F0200002F0200002F020000DC
:100060002F0200002F0200002F020000D902000022
:100070002F0200002F0200002F0200002F020000BC
:100080002F0200002F0200002F0200002F020000AC
:100090002F0200002F0200002F0200002F0200009C
:1000A0002F0200002F0200002F0200002F0200008C
:1000B0002F0200002F0200000000000000000000DE
:1000C0002F0200002F0200002F0200002F0200006C
:1000D0002F0200002F0200002F020000000000008D
:1000E0000000000000000000000000000000000010
:1000F0000000000000000000000000000000000000
:1001000000000000000000000000000000000000EF
:1001100000000000000000000000000000000000DF
:1001200000000000000000000000000000000000CF
:1001300000000000000000000000000000000000BF
:1001400000000000000000000000000000000000AF
:10015000000000000000000000000000000000009F
:10016000000000000000000000000000000000008F
:10017000000000000000000000000000000000007F
:10018000000000000000000000000000000000006F
:10019000000000000000000000000000000000005F
:1001A000000000000000000000000000000000004F
:1001B000000000000000000000000000000000003F
:1001C000000000000000000000000000000000002F
:1001D000000000000000000000000000000000001F
:1001E000000000000000000000000000000000000F
:1001F00000000000000000000000000000000000FF
:10020000DFF80CD000F02AF800480047610B00002E
:10021000E02200200648804706480047FEE7FEE748
:10022000FEE7FEE7FEE7FEE7FEE7FEE7FEE7FEE7A6
:10023000E90200000102000040EA01039B0703D02D
:1002400009E008C9121F08C0042AFAD203E011F815
:10025000013B00F8013B521EF9D27047064C074D96
:1002600006E0E06840F0010394E807009847103486
:10027000AC42F6D3FFF7C8FFAC1A0000CC1A00005E
:1002800070B54FF48076304600F0CAFC114CB505CD
:1002900060B1304600F0CBFC0120C5F8080360795E
:1002A00020B9012060712168002088474FF48276D0
:1002B000304600F0B5FC00280AD0304600F0B7FC0C
:1002C0000220C5F808032168BDE8704001200847F6
:1002D00070BD00002400002003220021014800F02E
:1002E000E3BB000000B00040F0B5B74AB7494FF09B
:1002F00080541368D4F830010978D4F83421451CAF
:10030000C1F3031106D0844601270025BCF1060F76
:1003100003D00AE003F0FF0CF6E7B4F82463DFF83B
:10032000B0C2C6F30426CCF80060DEB2062E06D1B9
:10033000032904D1DFF8A0C2A64ECCF87460461C95
:1003400004D08446BCF1060F03D00AE003F0FF0C92
:10035000F8E7D4F84462DFF884C2C6F34236CCF83A
:100360000060DEB2062E08D1032906D19C4ED6F8D5
:1003700000C02CF0807CC6F800C0461C04D0844627
:10038000BCF1060F03D00BE003F0FF0CF8E74FF0D1
:100390008046C6F80C51C6F81051904E361F356095
:1003A000DEB2062E08D1032906D1DFF830C20326BB
:1003B0000CF1640CCCF80060DEB2062E11D10329DA
:1003C0000FD1DFF820C20526CCF80060854E7836C4
:1003D0003760844E083635600CF1040C3F26CCF8AB
:1003E0000060461C06D084464FEA0206BCF1060FA8
:1003F00004D081E003F0FF0C0E46F7E7032E7BD01C
:10040000042E79D0784E3668DFF8E0C1CCF8006071
:10041000754E361D36680CF1040CCCF80060724E37
:10042000083636680CF1040CCCF800606E4E0C36C1
:1004300036680CF1040CCCF800606B4E1036366850
:100440000CF1040CCCF80060674E143636680CF1E1
:10045000040CCCF80060644E18363668DFF88CC1A6
:100460000CF1200CCCF800605F4E1C3636680CF1A5
:10047000040CCCF800605C4E203636680CF1040C9D
:10048000CCF80060584E243636680CF1040CCCF8D9
:100490000060554E283636680CF1040CCCF800602C
:1004A000514E2C3636680CF1040CCCF800604E4EE0
:1004B00030363668DFF834C10CF1400CCCF80060FF
:1004C000494E343636680CF1040CCCF80060464EC8
:1004D000383636680CF1040CCCF80060424E3C36DD
:1004E00036680CF1040CCCF800603F4E403636689C
:1004F0000CF1040CCCF80060461C05D04FEA000C4F
:10050000BCF1060F03D008E003F0FF0CF8E7D4F8C5
:100510005842374E04F04F043460441C03D0034665
:10052000062B02D008E0DBB2FAE732490B68DB07A2
:1005300002D06FF001030B6006280AD1032A08D00D
:10054000042A06D0052A04D02B48016841F48061B2
:10055000016023487438016841F470010160BFF301
:100560004F8FBFF36F8F4FF01021D1F8000200289A
:1005700003DBD1F80402002822DA204A1760204861
:100580000368002BFCD01523C1F800320468002C4E
:10059000FCD0C1F8043201680029FCD01560016864
:1005A0000029FCD0BFF34F8F0D48F0380168154A81
:1005B00001F4E06111430160BFF34F8F00BFFDE71D
:1005C000124911480860F0BDE00F00F0E80F00F09C
:1005D000403501400DF0ADBA00C007403C05004079
:1005E000FCED00E0105600400404001020C500405F
:1005F000E40E0040000400403C17004004E50140C8
:1006000000E401400400FA050090D00354000020EB
:1006100001480068004700001C00002002E008C8F4
:10062000121F08C1002AFAD170477047002001E06C
:1006300001C1121F002AFBD17047000072B60948A1
:100640000068C00700D000BEBFF34F8F0548E438F4
:100650000168054A01F4E06111430160BFF34F8F67
:1006600000BFFDE7F0ED00E00400FA050EB5002143
:100670000091CDE901106A4644F20100FFF7DEFF68
:100680000EBD10B58268C368934203D000F0B4F980
:10069000002010BD052010BD29B112B1531E134218
:1006A00003D0092070470E2070470160838000212D
:1006B0008160C1600846704710B58268C3689A1AA5
:1006C00083889A4203D800F0A1F9002010BD0420CD
:1006D00010BD000070B50A4E01460A48B578FFF714
:1006E000D0FF04464DB10020B070711C0122C81D1E
:1006F00000F01CFB08B1FFF7B9FF204670BD0000F9
:1007000034000020BC020020F0B5244E89B01F4602
:100710000D00044672603FD0A888296882B2204844
:10072000FFF7BAFF002835D1A889A96882B21C4812
:100730001030FFF7B1FF00282CD12022194968465C
:10074000FFF77AFD60690690207C00B101208DF8EA
:1007500014008DF81C70607C00B10E208DF815001F
:10076000E0680290A06803902068019060680090A3
:100770000A480D4A6946083000F0A4FA002809D159
:10078000B0702068401C05D004490122491CC81DD6
:1007900000F0CCFA09B0F0BD0720FBE734000020E0
:1007A000BC0200208C1A00001117000010B5014691
:1007B0001048FFF781FF040019D10F480F4A017854
:1007C000515C19B1001D00F0D7FE02E00C3000F0C2
:1007D000ADFD60B9084907480839FFF752FF30B945
:1007E000054901220839044800F0B0FA04462046C1
:1007F00010BD0000CC0200203C00002010000020B2
:1008000000F002B800F008B872B602480168491C4E
:10081000016070475000002003490868401E0860CE
:1008200000D162B670470000500000202DE9F04171
:10083000064608680C46411C4FF0A0474FF00105E2
:1008400006D005FA00F1C7F80815206800F0D6FABE
:100850006068411C02D0002100F0BEFA3168A06936
:10086000C1F82405607D227D31681043C1F86C0514
:10087000D4E900123068C0F81425C0F80C15207DAA
:10088000012815D1A068411C02D0002100F0A4FA73
:10089000E068411C05D08540C7F80855E06800F0C5
:1008A000ADFAD4E902123068C0F80825C0F8101576
:1008B000BDE8F0812DE9F041064608680C46411C70
:1008C0004FF0A0474FF0010506D005FA00F1C7F838
:1008D0000815206800F09CFA6068411C02D00021D5
:1008E00000F083FA3168A069C1F82405607D217D9C
:1008F00032680843C2F86C05D4E900123068C0F8C9
:100900000C15C0F81425207D012815D1A068411CC4
:1009100002D0002100F069FAE068411C05D0854052
:10092000C7F80855E06800F073FAD4E9021230689D
:10093000C0F80825C0F81015BDE8F0812DE9FC418C
:100940000646C0074FF000050ED0104F00240122CC
:10095000385D009500231146019500F007FA641CEC
:10096000042CF4D300F01CF8B0070DD5074E00247A
:10097000361D0022305D032300951146019500F0DD
:10098000F5F9641C042CF4D3BDE8FC817C1A00004A
:100990000249085C012100F045BA00007C1A000001
:1009A00010B500242046FFF7F3FF641C042CF9D394
:1009B00010BD000070B5084C050009D01034216846
:1009C000002907D008682060496828468847F6E76C
:1009D0000834F4E770BD0000A8020020054A012198
:1009E00020B1012805D19170FFF7E4BF51700020BC
:1009F000FAE77047A8020020826883881A400368DB
:100A00009A5C0A708168491C81607047C26883885B
:100A10001A4003689954C168491CC16070470000BE
:100A200070B50D46044600684FF4887100F021FA55
:100A30004FF49071206800F01CFA4FF49271206816
:100A400000F017FA4FF4A271206800F012FA4FF488
:100A5000AC71206800F00DFA20681249C0F8041348
:100A60002068690740F30730090E002804DB00F115
:100A7000E02080F8001405E000F00F0000F1E02015
:100A800080F8141D206840F30730002809DB00F0CF
:100A90001F02012191404009800000F1E020C0F8D0
:100AA000001170BD100342002DE9F04791468846C1
:100AB00004464FF480354FF4A0760027DFF884A079
:100AC00016E000BFD4F8040328420DD0A05958B155
:100AD000C4F84853C4F808533146204600F0ADF935
:100AE0005AF82810F8B28847361D6D00B6B27F1C40
:100AF0004F45E7D3D4F804034FF4807110F0010F91
:100B000009D0D4F8000130B1204600F096F95AF827
:100B1000281004208847D4F804034FF4827110F0A1
:100B2000020F0CD0D4F80401002808D0204600F0B1
:100B300084F95AF82810BDE8F04705200847BDE8B9
:100B4000F0870000300000200268134602E08A426D
:100B500004D01268002AFAD10B60016070470000CF
:100B60008AB000F02DFD182227496846FFF764FB84
:100B70002648069026494FF48070CDE90701099078
:100B80000723244A06A96846FFF7BEFD08B1FFF710
:100B90006DFD214D214F002605F108041E48FFF789
:100BA00099FD18B9287840B301282AD0687800B395
:100BB0003878F0B13E706868401C010E68602170A2
:100BC000010C6170010AA170E0702078FFF7EEFD62
:100BD0000028FAD16078FFF7E9FD0028FAD1A07863
:100BE000FFF7E4FD0028FAD1E078FFF7DFFD0028E9
:100BF000FAD140BF20BF20BFD0E7012068706E60EF
:100C0000D6E76E70F5E70000541A00005800002087
:100C100058010020FF160000000000200C000020FA
:100C200000F180400068002800D00120704708B51E
:100C300000F18040002101600068009008BD0000C4
:100C400070B50C4C0125207808B185260BE00020FA
:100C5000A06060602061E060074800F02FF9064660
:100C600000F016F9257000F00BF900B1A5703046C0
:100C700070BD0000A8020020DD09000070B5104D15
:100C80000446A87838B114B1616801208847002073
:100C9000FFF7B6FD0CE00020FFF7B2FD24B10848D5
:100CA00021461030FFF750FFE86808B900F016F948
:100CB000E868401CE860BDE870400020FFF7A2BD76
:100CC000A8020020F0B505460478154889B01646FC
:100CD00040F82420124A0869121DA2F1080742F8C0
:100CE0002400487F385520226846FFF7A5FA04946F
:100CF0002878385C48B10EB10A4A00E00022694603
:100D0000281D00F02BFB09B0F0BD0EB1064A00E033
:100D10000022694605F10C0000F0D4F9F3E7000069
:100D20001400002011190000B517000030B403783A
:100D3000054CE35C1BB130BC001D00F045BB30BC72
:100D40000C3000F029BA00001000002030B4037805
:100D5000054CE35C1BB130BC001D00F0B7BB30BCE0
:100D60000C3000F08FBA00001000002070B541EA8E
:100D70004201DDE904564FF0A04441EA830141EA13
:100D8000052104EB800041EA0641C0F8001770BD60
:100D900070B541EA4201DDE904564FF0A04441EA52
:100DA000830141EA052104EB800041EA0641C0F8D5
:100DB000001770BD70B541EA4201DDE904564FF0FD
:100DC000A04441EA830141EA052104EB800041EAA5
:100DD0000641C0F8001770BD1CB500220B460092FA
:100DE00011460192FFF7D4FF1CBD1CB500220B4633
:100DF000009211460192FFF7DDFF1CBD1CB50021DA
:100E000000910B46012201911146FFF7C1FF1CBD65
:100E10001CB5002100910B46012201911146FFF7FC
:100E2000C9FF1CBD01224FF0A043824011B1C3F89D
:100E300008257047C3F80C25704708B500224250BA
:100E40004058009008BD4058002800D0012070474D
:100E500008B5002242504058009008BDD0F8040365
:100E6000084000D0012070474058002800D00120E1
:100E7000704708B5002242504058009008BD00005D
:100E800002480068002800D001207047000401409B
:100E900008480068012110F0010F06D14FF0E02052
:100EA000C02280F800248430C16703490120086013
:100EB0007047000000E100E01805004006490246C6
:100EC00000200B790BB1852070470A6001220A715E
:100ED00000224A71704700002400002070B54FF4D2
:100EE0008270FFF7A4FE02204107C1F804030B4BF8
:100EF000196841F0807018600948026842F00104E6
:100F0000046044684FF40A554668361BAE42FBD372
:100F10000260196003490120086070BDFCED00E02B
:100F2000001000E0080000400121B1EB507F01D12A
:100F3000012070470020704770B50D4600F02AFB75
:100F400004000FD00020FFF75BFC207920B10020C7
:100F5000FFF758FC112070BD012025602071002092
:100F6000FFF750FC002070BD2DE9F04105464FF41D
:100F7000A07000EB810086B228684FF480348C406A
:100F8000C0F848432868C0F8084322F07F406A79D7
:100F9000154F02EB42023A445278002A2A6802EBCB
:100FA0008101C1F8400512D02968D1F80425111A31
:100FB000824202D26FF07F400144687900EB40002A
:100FC00038448078884202DD0D20BDE8F08133B1DD
:100FD00031462868FFF731FF2868C0F804432868C5
:100FE000C0F844430020F0E72C00002001680122F3
:100FF0000A604079024A00EB400002211154704718
:101000002C00002030B54379204C44F8232042794D
:10101000231F02EB42029A5C0AB1082030BD90F90E
:1010200004208C78002A4FEA441404DB02F1E02209
:1010300082F8004405E002F00F0202F1E02282F89B
:10104000144D90F904200124002A09DB02F01F0549
:1010500004FA05F55209920002F1E022C2F80051AB
:1010600002680D88C2F8085545790A7905EB4505EF
:101070001D446A704279C97802EB42021A449170A9
:10108000407900EB40001C54002030BD30000020AF
:1010900070B50E4605464FF4807101240068FFF7D5
:1010A000CCFE2868C0F84443002E02D02868C0F85F
:1010B000044370BD0149024800F094BB580200206F
:1010C000002000402DE9F0410546007916460F4604
:1010D00000EB40012D4A01EBC00102EB810494F8C2
:1010E0002A1011B10820BDE8F081294951F82010DB
:1010F0002868FFF721FF08B11120F4E73946284698
:10110000FFF794FB66603869206030004FF00106FD
:101110002FD03F7F4FF48E712868FFF799FE4FF470
:10112000A2712868FFF794FE28681A49C0F80413D2
:1011300028684FEA471140F30730002804DB00F12C
:10114000E02080F8001405E000F00F0000F1E0203E
:1011500080F8141D286840F30730002809DB00F0F0
:101160001F0106FA01F14009800000F1E020C0F8FB
:10117000001128680421C0F800150020A061E0617A
:1011800084F8290044F8140FA675ACE75802002033
:10119000841A0000800002002DE9F05F0546007906
:1011A0004FF4017600EB400303EBC000344B03EB3C
:1011B00080040020636813B12B68C3F80863A36937
:1011C0004FF000096BB1E06938B1606810B1286870
:1011D000C0F804631120BDE8F09FE26101202161A5
:1011E00005E0C4F82490A261E160C4F81C9094F872
:1011F0002910014302D1284600F047FA6068002810
:10120000286803D0C0F804630020E4E74FF4A27616
:101210003146FFF71DFEB2464FF4927B59462868CF
:10122000FFF711FE06464FF484712868FFF70BFEA6
:10123000804651462868FFF706FE074648EA070041
:101240003043EBD056EA070007D12146286800F06A
:10125000EDF9A169606A8142E0D8C4F818900EB136
:101260000320B8E70FB10F20B5E794F8291001204B
:101270000029296801D00860C6E74860C4E700007B
:10128000580200202DE9F05F054600790B4600EB7F
:10129000400101EBC000244901EB8004284600F026
:1012A00045F810B11120BDE8F09F62614FF00009D0
:1012B000C4F82090A36084F828904FF48E784E46AE
:1012C00041462868FFF7C4FD28684FF0010AC0F8BE
:1012D00008A02146286800F0E8F9606808BBD5F846
:1012E00000B067690FE000BF94F8280008B10F262E
:1012F00015E041465846FFF7A6FD0028F4D02146E8
:10130000584600F0D2F9206AB842F2D35746414617
:101310002868FFF798FD0028F9D02868C760C4F84E
:1013200014903046BFE7000058020020007900EB1F
:10133000400101EBC000044901EB80004069002836
:1013400000D00120704700005802002001490248E7
:1013500000F0F6BA84020020002000402DE9F041A0
:101360000546164600790F46154A00EBC00102EB10
:10137000810494F8201011B10820BDE8F0811149D2
:1013800051F820102868FFF7D7FD08B11120F4E7C5
:1013900039462846FFF78EFA6660386920601EB12C
:1013A000397F2846FFF73CFB28680821C0F8001564
:1013B0000020A061E0616061012184F82010DCE779
:1013C00084020020881A00002DE9F05F04460079AD
:1013D0000E4600EBC001DFF8F0A017460AEB8105CE
:1013E0003046FFF7A1FDB0B168684FF000084FF438
:1013F000047910B12168C1F80893A8694FF0000B77
:1014000080B1E86948B1686810B12068C0F80493F9
:101410001120BDE8F09F1020FBE7EF614FF00108BD
:101420002E6102E0EE60C5E9067B00254FF488716D
:101430002068FFF71EFD4FF4A2712068FFF719FD29
:101440002068C0F83465C0F838752068B8F1000F1E
:1014500012D0D0F8001241F02001C0F8001220791B
:10146000D04600EBC0010AEB8100406838B120682B
:10147000C0F804932846CCE701210160EFE74FF460
:10148000887A4FF4A27951462068FFF7EDFC0746B1
:1014900049462068FFF7E8FC06464FF49271206841
:1014A000FFF7E2FC014647EA06000843EBD0227949
:1014B00002EBC20308EB8302C2F818B001B10325A6
:1014C000002ED7D00F25D5E7840200202DE9F04764
:1014D00004460E460079274900EBC00001EB800569
:1014E00017463046FFF720FD30B1204600F044F8A3
:1014F00020B11120BDE8F0871020FBE76F61AE60DE
:101500004FF490774FF0000839462068FFF7B1FCA0
:101510004FF4AC7631462068FFF7ABFC2068AA6830
:101520006969C0F84425C0F8481520684FF00109E2
:10153000C0F808906868D0B9BA4651462068FFF7ED
:1015400093FC074631462068FFF78EFC0743F4D032
:1015500010B14FF00F0808E02068C0F80C90314639
:101560002068FFF781FC0028F9D000206861404620
:10157000C0E70000840200200079054900EBC000AC
:1015800001EB80004069002800D001207047000076
:10159000840200200349884201D10348704700209B
:1015A00070470000002000401C000020002804D0EC
:1015B000042802D101490120087070470C00002066
:1015C0001CB50120FFF7BAF9FFF73AFB08B1FFF7A6
:1015D0004DF80020FFF752FB1249134AD1E90001F0
:1015E000CDE9000140F2FF10ADF800000D4869465A
:1015F0000830FFF707FD08B1FFF738F80948012167
:101600000830FFF745FD0748012318220021083064
:10161000FFF7AAFC08B1FFF729F802480830FFF7E6
:10162000E5FC1CBD6C1A0000AD15000070B5054648
:1016300088690C4600284FF4847128460AD0FFF7C9
:1016400007FCD5F81805626AE1688854606A401C96
:10165000606270BDFFF7FCFBD5F8180570BD1FB5C3
:1016600001238DF80030CDE90121D0E90012684650
:1016700090471FBD1FB501238DF80030CDE9012132
:10168000D0E90012684690471FBD10B504460068B7
:101690004FF49271FFF7DCFB4FF484712068FFF781
:1016A000D7FB20680121016010BD70B50C460546CE
:1016B0004FF48E71FFF7CCFB216AA068415C206A71
:1016C000401C2062C5F81C1570BD1FB500228DF8A6
:1016D00000200291816801914261D0E900126846C0
:1016E00090471FBD1FB500228DF800200291816830
:1016F00001914261D0E90012684690471FBD017810
:10170000022901D0012902D14068FEF7AFBF70471E
:101710007CB50178254DA1B301290BD002291DD13B
:101720008DF80010C068691C01900122C81DFFF7E8
:10173000FDFA30E0017A59B1406801781C48FEF7A3
:10174000BBFF1B4C012650B18DF8006001900DE0ED
:1017500016490122491CC81DFFF7E8FA7CBDA068A4
:10176000E168814205D000208DF800006968684674
:101770008847A068E168081AA1888842E8D9AE7055
:101780007CBDFFE70A4809491030FEF77AFF30B107
:1017900003208DF80000696868468847F0E7034930
:1017A000012201F10800FFF7D1FAE9E73400002037
:1017B000BC0200201FB50A4601788DF80010416870
:1017C0000191017A8DF80810C0680390044850F820
:1017D0002210001F50F82220684690471FBD0000CD
:1017E000180000202DE9FF470C4605464FF4007114
:1017F000FFF734FB01274FF40178002618B34FF4AC
:10180000927949462846FFF71EFBE0B14946284633
:10181000FFF71EFBC5F8088394F8290000B96F6034
:1018200002208DF80000D5F88004C5F880040390EC
:10183000A0690290E0680190A661E661D4E9001217
:101840006846904728E004212846FFF707FB18B3B5
:101850004FF484712846FFF7F6FAE8B1214628468E
:10186000FFF7E4FE616AA069884215D1E06938B1EA
:10187000E268616AA0612069E6616662E06008E092
:1018800094F8290000B96F60C5F80883A661E26882
:10189000616A2046FFF7E3FE4FF48E784146284602
:1018A000FFF7D1FA80B16069216A814202D294F8CF
:1018B000280028B341462846FFF7CAFA606918B1E4
:1018C00061692046FFF701FF4FF4A27841462846A0
:1018D000FFF7B9FA002818D041462846FFF7B8FAB2
:1018E00094F8290000B12F60A06900280DD0A661EE
:1018F000E268616A04B02046BDE8F047FFF7AFBE7A
:1019000021462846FFF7D1FEDEE7BDE8FF8700004D
:101910001FB50A4601788DF8001041680191017ADF
:101920008DF80810C0680390044850F82210001F7A
:1019300050F82220684690471FBD00001800002084
:101940002DE9FF410C464FF4927705463946FFF7E3
:101950008BFA0026B8B139462846FFF78AFA0220EA
:101960008DF80000D5F88004C5F880040390D5F800
:101970003C050290E0680190A661E661D4E900129E
:101980006846904723E04FF4887739462846FFF7AA
:101990006BFAE0B139462846FFF76BFAD5F83C15EB
:1019A000A069884213D1E06960B1E268D5F800020D
:1019B00020F02000C5F80002E069A0612069E6611E
:1019C000E06001E0A661E2682046FFF753FE4FF4B5
:1019D000A27739462846FFF747FA68B139462846C4
:1019E000FFF747FAA06938B1A661E661D5F83C1562
:1019F0002046E268FFF73EFE4FF4907631462846D7
:101A0000FFF732FA60B131462846FFF732FA01207B
:101A1000E860606920B1D5F84C152046FFF762FEFA
:101A20004FF4AC7631462846FFF71EFA00280ED058
:101A300031462846FFF71DFA6069002807D0D5F81F
:101A40004C1504B02046BDE8F041FFF74BBEBDE8A1
:101A5000FF810000080000000600000005000000F3
:101A60000700000000000000000000100000064118
:101A70000000000000B000400B000300111213141E
:101A80000D0E0F10B51000004D130000FFFFFFFFFB
:101A9000FFFFFFFFFFFFFFFFFFFFFFFF0000000052
:101AA000000000000000D60106010000CC1A000072
:101AB00000000020580000001C060000241B00004D
:101AC00058000020882200002C06000000000000C2
:101AD0000000000000000000000000000000000006
:101AE00000000000000000000000000000000000F6
:101AF00000000000000000000000000000000000E6
:101B00000000000000000000000000000020004075
:101B10000000000000200040000000000000000065
:041B20000090D0035E
:0400000500000201F4
:00000001FF
